:020000040800F2
:10000000005000202D3E0008A9030008AB030008A3
:10001000AD030008AF030008B103000800000000B2
:10002000000000000000000000000000B303000812
:10003000B503000800000000B7030008B90300087A
:10004000753E0008753E0008753E0008753E0008C4
:10005000753E0008753E0008753E0008753E0008B4
:10006000753E0008753E0008753E0008753E0008A4
:10007000753E0008753E0008753E0008753E000894
:10008000753E0008753E0008753E0008753E000884
:10009000C1030008753E0008753E0008753E000863
:1000A000753E0008753E0008753E0008753E000864
:1000B000753E0008753E0008753E0008753E000854
:1000C000753E0008753E0008753E0008753E000844
:1000D000753E0008753E0008753E0008753E000834
:1000E000753E0008753E0008753E000800000000DF
:1000F0000000000000000000000000000000000000
:0C01000000000000000000005FF808F1A3
:10010C0010B5054C237833B9044B13B10448AFF345
:10011C0000800123237010BD580100200000000056
:10012C00D03E000808B5034B1BB103490348AFF39D
:10013C00008008BD000000005C010020D03E0008DB
:10014C0030B589B0002404940594069407941C4B94
:10015C009A6942F010029A619A6902F010020192B7
:10016C00019A9A6942F020029A619A6902F020027F
:10017C000292029A9A6942F004029A619B6903F016
:10018C0004030393039B0F4D22464FF40051284662
:10019C0000F0B3FE4FF4005304930123059306942F
:1001AC000223079304A9284600F092FD78230493B8
:1001BC000594069404A9044800F08AFD09B030BDEA
:1001CC0000100240001001400008014072B6FEE72A
:1001DC0000B595B0282200210DEB020003F045FE7E
:1001EC0000230593069307930893099301930293B5
:1001FC000393049301220A924FF480330B930E92D3
:10020C000222119212934FF4E01313930AA800F0F8
:10021C00EBF9C0B90F230593022106910023079334
:10022C004FF480620892099305A800F00FFC60B9A6
:10023C00102301930023049301A800F0BDFC30B9F6
:10024C0015B05DF804FBFFF7C1FFFFF7BFFFFFF729
:10025C00BDFF000010B582B000F078F9FFF7B8FFD1
:10026C00FFF76EFF00F0CAFE002301933BE0002471
:10027C000821444800F03AFE012846D0102141489C
:10028C0000F034FE18B99DF80530002B45D0102134
:10029C003C4800F02BFE012846D02021394800F0C4
:1002AC0025FE18B99DF80630002B45D02021354885
:1002BC0000F01CFE012846D04021324800F016FE0A
:1002CC0018B99DF80730002B45D040212D4800F07F
:1002DC000DFE012846D0002C4CD000224FF40051CA
:1002EC00294800F00AFE0821264800F0FFFD0446CC
:1002FC000028BCD19DF80430002BB9D1234800F064
:10030C00F3F801248DF80440B2E79DF80430012B7A
:10031C00B4D100238DF80430B0E71D4800F0E4F8A8
:10032C0001248DF80540B2E79DF80530012BB4D1BE
:10033C0000238DF80530B0E7164800F0D5F80124FD
:10034C008DF80640B2E79DF80630012BB4D100239E
:10035C008DF80630B0E7104800F0C6F801248DF88F
:10036C000740B2E79DF80730012BB4D100238DF87C
:10037C000730B0E701224FF40051034800F0BDFDF7
:10038C00B1E700BF0008014000100140E83E000842
:10039C00F03E0008F83E00080C3F0008FEE7FEE7C0
:1003AC00FEE7FEE7FEE770477047704708B500F0C0
:1003BC00DFF808BD08B5024801F0DAFD08BD00BF42
:1003CC005806002082B00E4B9A6942F001029A61E5
:1003DC009A6902F001020092009ADA6942F08052A6
:1003EC00DA61DB6903F080530193019B054A536882
:1003FC0023F0E06343F00073536002B0704700BF1A
:10040C00001002400000014008B5A0F16103DBB20E
:10041C00192B1CD8324B00221A705D3898700822A8
:10042C002F49304803F0E8FC002853D10F2000F08E
:10043C00B1F82B4900230B708B700822294803F06C
:10044C00DBFC002849D10F2000F0A4F808BDA0F176
:10045C004103DBB2192B05D8214B02221A703D380F
:10046C009870DCE70A2821D030D33F282ED82028DA
:10047C002CD320381F2829D8DFE800F0101C28289E
:10048C0028282828282828282828142828282828F4
:10049C00282828282828282828282822104B2C22CD
:1004AC009A70BCE70E4B37229A70B8E70C4B282297
:1004BC009A70B4E70A4B02221A701E229A70AEE7A9
:1004CC00074B02221A7038229A70A8E7044B0022BC
:1004DC009A70A4E7FFF77AFEA8E7FFF777FEB2E77A
:1004EC00740100208001002038B50546002403E08B
:1004FC00FFF78AFF0134E4B2285D0028F8D138BD3B
:10050C0010B504460E4B1A784FF47A73B3FBF2F322
:10051C000C4A1068B0FBF3F000F05AFD68B90F2CD0
:10052C0001D901200AE0002221464FF0FF3000F0F3
:10053C0031FD054B1C60002000E0012010BD00BF08
:10054C0000000020080000200400002008B5074A25
:10055C00136843F010031360032000F009FD0F2013
:10056C00FFF7CEFFFFF72EFF002008BD0020024052
:10057C00034A1168034B1B780B441360704700BF90
:10058C007C01002000000020014B1868704700BF60
:10059C007C01002038B50446FFF7F6FF0546B4F1A0
:1005AC00FF3F02D0044B1B781C44FFF7EDFF401BB0
:1005BC00A042FAD338BD00BF0000002082B0084B27
:1005CC001B68084AA2FB03235B0A00FB03F301939D
:1005DC0000BF019B5A1E0192002BF9D102B070474B
:1005EC0008000020D34D6210002800F0F18170B596
:1005FC0082B00446036813F0010F2CD0994B5B6852
:10060C0003F00C03042B1DD0964B5B6803F00C031A
:10061C00082B12D06368B3F5803F41D0002B55D125
:10062C0003F1804303F504331A6822F480321A6014
:10063C001A6822F480221A6037E08A4B5B6813F444
:10064C00803FE7D0874B1B6813F4003F03D06368EF
:10065C00002B00F0BF81236813F0020F75D0814B83
:10066C005B6813F00C0F5FD07E4B5B6803F00C03E0
:10067C00082B54D02369002B00F08A807A4B01227E
:10068C001A60FFF781FF0546764B1B6813F0020FCB
:10069C0075D1FFF779FF401B0228F5D903209EE1A5
:1006AC00704A136843F480331360636843B3FFF7F5
:1006BC006BFF05466B4B1B6813F4003FCBD1FFF768
:1006CC0063FF401B6428F5D9032088E1B3F5A02F04
:1006DC0009D0644B1A6822F480321A601A6822F42A
:1006EC0080221A60E1E703F18043A3F53C331A68DA
:1006FC0042F480221A601A6842F480321A60D4E7FD
:10070C00FFF742FF0546574B1B6813F4003FA2D07E
:10071C00FFF73AFF401B6428F5D903205FE1514BEA
:10072C005B6813F4803FA5D14E4B1B6813F0020F8E
:10073C0003D02369012B40F04F814A4A136823F000
:10074C00F803616943EAC1031360236813F0080FCF
:10075C0033D0A369002B5CD0434B0122C3F8802417
:10076C00FFF712FF05463F4B5B6A13F0020F21D1D6
:10077C00FFF70AFF401B0228F5D903202FE1394A65
:10078C00136823F0F803616943EAC1031360DCE7E3
:10079C00354B00221A60FFF7F7FE0546314B1B68FC
:1007AC0013F0020FD1D0FFF7EFFE401B0228F5D952
:1007BC00032014E10120FFF701FF236813F0040F5D
:1007CC0000F09680274BDB6913F0805F34D1254B0A
:1007DC00DA6942F08052DA61DB6903F080530193ED
:1007EC00019B0125214B1B6813F4807F26D0E36805
:1007FC00012B3DD0002B53D103F1804303F504337F
:10080C001A6A22F001021A621A6A22F004021A62AF
:10081C0033E0154B0022C3F88024FFF7B5FE0546E4
:10082C00104B5B6A13F0020FC7D0FFF7ADFE401BF5
:10083C000228F5D90320D2E00025D3E70B4A136830
:10084C0043F480731360FFF79FFE0646074B1B684B
:10085C0013F4807FCBD1FFF797FE801B6428F5D96A
:10086C000320BCE000100240000042420070004037
:10087C005F4A136A43F001031362E36833B3FFF773
:10088C0083FE06465A4B1B6A13F0020F2FD1FFF75B
:10089C007BFE801B41F288339842F3D903209EE003
:1008AC00052B09D0524B1A6A22F001021A621A6AFD
:1008BC0022F004021A62E0E74D4B1A6A42F004027D
:1008CC001A621A6A42F001021A62D6E7FFF75CFE5E
:1008DC000646474B1B6A13F0020F08D0FFF754FE75
:1008EC00801B41F288339842F3D9032077E0E5B9B5
:1008FC00E369002B72D03E4A526802F00C02082ABF
:10090C0056D0022B17D03B4B00221A66FFF73CFE49
:10091C000446374B1B6813F0007F47D0FFF734FEBB
:10092C00001B0228F5D9032059E0314AD36923F082
:10093C008053D361DCE72F4B00221A66FFF724FEAD
:10094C0005462B4B1B6813F0007F06D0FFF71CFEEF
:10095C00401B0228F5D9032041E0236AB3F5803F00
:10096C001AD023494B6823F47413226A606A024339
:10097C0013434B601F4B01221A66FFF705FE04461A
:10098C001B4B1B6813F0007F0ED1FFF7FDFD001B06
:10099C000228F5D9032022E0154A536823F40033CA
:1009AC00A1680B435360DCE7002018E0002016E040
:1009BC00012B16D00E4B5B6803F48031226A9142F6
:1009CC0011D103F47013626A93420ED1002006E039
:1009DC0001207047012002E0012000E0002002B05D
:1009EC0070BD0120FBE70120F9E70120F7E700BF0C
:1009FC0000100240000042420F4B5B6803F00C02F7
:100A0C00082A01D00D487047C3F383420C49885C17
:100A1C0013F4803F0BD0084B5B68C3F34043094A87
:100A2C00D35C064A02FB00F0B0FBF3F07047064BB8
:100A3C0003FB00F0704700BF0010024000127A0068
:100A4C00603F00085C3F000800093D00002800F0F2
:100A5C00A08070B50D460446524B1B6803F007038B
:100A6C008B420BD24F4A136823F007030B431360DE
:100A7C00136803F007038B4240F08D80236813F05A
:100A8C00020F17D013F0040F04D0474A536843F4F5
:100A9C00E0635360236813F0080F04D0424A536894
:100AAC0043F460535360404A536823F0F003A16849
:100ABC000B435360236813F0010F31D06368012B93
:100ACC0020D0022B25D0384A126812F0020F64D0C5
:100ADC0035494A6822F0030213434B60FFF754FD7B
:100AEC000646314B5B6803F00C036268B3EB820F74
:100AFC0016D0FFF749FD801B41F288339842F0D99C
:100B0C00032045E0284A126812F4003FE0D101208E
:100B1C003EE0254A126812F0007FD9D1012037E05F
:100B2C00204B1B6803F00703AB420AD91D4A13681C
:100B3C0023F007032B431360136803F00703AB4246
:100B4C002DD1236813F0040F06D0174A536823F4F1
:100B5C00E063E1680B435360236813F0080F07D080
:100B6C00114A536823F46053216943EAC10353606B
:100B7C00FFF742FF0C4B5B68C3F303130B4AD35CC8
:100B8C00D8400B4B18600B4B1868FFF7B9FC0020D2
:100B9C0070BD012070470120FAE70120F8E7012021
:100BAC00F6E700BF0020024000100240703F000832
:100BBC00080000200400002070B582B004460368D1
:100BCC0013F0010F36D03F4BDB6913F0805F49D136
:100BDC003C4BDA6942F08052DA61DB6903F08053F6
:100BEC000193019B0125384B1B6813F4807F3BD08C
:100BFC00344B1B6A13F4407313D0626802F44072D6
:100C0C009A420ED02F4A136A23F440702F490126C2
:100C1C00C1F840640026C1F84064106213F0010F63
:100C2C0036D1284A136A23F4407361680B4313626C
:100C3C00002D3ED1236813F0020F06D0214A5368D1
:100C4C0023F44043A1680B435360236813F0100F47
:100C5C0034D01C4A536823F48003E1680B4353607F
:100C6C0000202CE00025BEE7174A136843F480737C
:100C7C001360FFF789FC0646134B1B6813F4807F47
:100C8C00B6D1FFF781FC801B6428F5D9032016E050
:100C9C00FFF77AFC06460B4B1B6A13F0020FC0D110
:100CAC00FFF772FC801B41F288339842F3D9032082
:100CBC0005E0D36923F08053D361BBE7002002B079
:100CCC0070BD00BF001002400070004000004242A6
:100CDC0070B582B00024A446A1E07E4DAB4214D086
:100CEC000CD8A5F58015AB420FD005F57025AB429D
:100CFC000BD0A5F58015AB4210D106E0764DAB427A
:100D0C0003D005F58035AB4208D18B68002B50D051
:100D1C00012B49D04261082400E0CC68BEF1FF0FE2
:100D2C0049D806464FEA8C0233680F25954023EAD2
:100D3C00050304FA02F2134333604B6813F0805F2F
:100D4C006BD0664B9A6942F001029A619B6903F081
:100D5C0001030193019B4FEA9C02951C604B53F8D5
:100D6C0025600CF00305AD000F23AB4026EA03060B
:100D7C005C4B984226D003F58063984200F08C803F
:100D8C0003F58063984200F0898003F580639842F4
:100D9C0016D0042317E0CC680434BFE7CC680834C1
:100DAC00BCE7CC680C34B9E702610824B6E7002430
:100DBC00B4E70424B2E7061DACF108029200B3E7D5
:100DCC00032300E00023AB4033430232444D45F88B
:100DDC0022304B6813F4801F62D0434A936843EA75
:100DEC000E0393604B6813F4001F5FD03E4AD36828
:100DFC0043EA0E03D3604B6813F4003F5CD03A4ACD
:100E0C00536843EA0E0353604B6813F4803F59D088
:100E1C00354A136843EA0E0313600CF1010C0B689E
:100E2C0033FA0CF254D0012202FA0CF203EA020E4D
:100E3C0032EA0303F1D14B68122B3FF64EAF122B63
:100E4C003FF66CAF01A555F823F000BF170D000855
:100E5C00270D0008A90D0008BB0D0008290D00087E
:100E6C00290D0008290D0008290D0008290D00087E
:100E7C00290D0008290D0008290D0008290D00086E
:100E8C00290D0008290D0008290D0008290D00085E
:100E9C00A30D0008AF0D0008012394E7022392E78D
:100EAC00114A936823EA0E0393609BE70E4AD368BA
:100EBC0023EA0E03D3609EE70B4A536823EA0E0322
:100ECC005360A1E7084A136823EA0E031360A4E7F2
:100EDC0002B070BD00002210000031100010024062
:100EEC0000000140000801400004014083681942E1
:100EFC0001D001207047002070470AB10161704792
:100F0C000904016170470000002808DB0901C9B21F
:100F1C0000F1604000F5614080F80013704700F06C
:100F2C000F000901C9B2014B1954704714ED00E0D0
:100F3C0000B500F00700C0F1070CBCF1040F28BF8E
:100F4C004FF0040C031D062B0FD9C31E4FF0FF3EB0
:100F5C000EFA0CF021EA000199400EFA03FE22EA87
:100F6C000E0241EA02005DF804FB0023EEE70000EC
:100F7C00074AD36823F4E0631B041B0C000200F443
:100F8C00E060034343F0BF6343F40033D360704726
:100F9C0000ED00E010B50446054BD868C0F3022004
:100FAC00FFF7C6FF01462046FFF7AEFF10BD00BF9E
:100FBC0000ED00E0002807DB00F01F0240090123D0
:100FCC009340024A42F82030704700BF00E100E035
:100FDC000138B0F1807F0BD24FF0E0235861054A05
:100FEC00F02182F823100020986107221A617047C3
:100FFC000120704700ED00E07047000008B50022AA
:10100C000B490C4802F063F948B90B49094802F046
:10101C0075F938B9074802F078F930B908BDFFF70F
:10102C00D5F8F2E7FFF7D2F8F4E7FFF7CFF8F5E7DA
:10103C0040000020800100202001002012230B80A2
:10104C00004870472C00002004230B800048704798
:10105C0028000020002393421ED200B510E00CF1B2
:10106C00370C01F813C000014FEA430C0CF1010CD2
:10107C004FF0000E01F80CE00133DBB2934209D2C1
:10108C004FEA107CB0F1204FE9D20CF1300C01F892
:10109C0013C0E8E75DF804FB7047000038B50B4B54
:1010AC00D3F8E807D3F8EC47D3F8F037C01800D1E1
:1010BC0038BD074D08222946FFF7CCFF042205F165
:1010CC0010012046FFF7C6FFF2E700BF00F0FF1F3C
:1010DC000E00002008B51A230B80FFF7DFFF014834
:1010EC0008BD00BF0C00002008B50A4628B9054908
:1010FC00054802F062FD034808BD0249024802F0AF
:10110C005CFDF8E744040020143F000810B50A46C3
:10111C00034C2146034802F050FD204610BD00BF91
:10112C00440400202C3F000808B50A4628B905499C
:10113C00054802F042FD034808BD0249024802F08E
:10114C003CFDF8E744040020403F000808B50A467F
:10115C0028B90549054802F030FD034808BD02498D
:10116C00024802F02AFDF8E7440400204C3F000836
:10117C00022805D8DFE800F00504020001207047C2
:10118C000220704702680E4B9A4200D0704700B59F
:10119C0083B003F5DA33DA6942F40002DA61DB6911
:1011AC0003F400030193019B002211461420FFF766
:1011BC00F1FE1420FFF7FEFE03B05DF804FB00BF48
:1011CC00005C004008B500F52C71D0F8EC0202F080
:1011DC00B4F808BD08B501EB810300EBC303D3F8E9
:1011EC007C21D0F8EC0202F0D5F808BD08B501EB73
:1011FC00810300EBC303DA6BD0F8EC0202F010F9B8
:10120C0008BD08B5D0F8EC0202F0B1F908BD10B574
:10121C0004468368022B09D10121D4F8EC0202F0B8
:10122C008FF9D4F8EC0202F063F910BDFEF7CEFF93
:10123C00F2E7000010B50446D0F8EC0202F083F996
:10124C00A36923B1024A136943F00603136110BD6D
:10125C0000ED00E008B5D0F8EC0202F07DF908BD15
:10126C0010B504461648C0F8EC42C4F8C002154B41
:10127C000360082343600223836000238361C361FE
:10128C00036200F00FF9B8B9182300221146D4F804
:10129C00C00201F06BF8582300228021D4F8C00260
:1012AC0001F064F84FF4807300228121D4F8C0025D
:1012BC0001F05CF8002010BDFEF788FFE4E700BFEA
:1012CC0058060020005C004008B5D0F8C00200F0C1
:1012DC0071F9FFF74DFF08BD08B594461A466346F1
:1012EC00D0F8C00200F01CFFFFF742FF08BD08B5A4
:1012FC00D0F8C00200F052FFFFF73AFF08BD08B566
:10130C00D0F8C00200F0BBFFFFF732FF08BD08B5F4
:10131C00D0F8C00200F0EFFFFFF72AFF08BDD0F8AD
:10132C00C03211F0800F08D101F07F0101EB810177
:10133C0003EBC10393F86A01704701F07F0101319F
:10134C0001EB810103EBC1039878704708B5D0F825
:10135C00C00200F0F9FDFFF70BFF08BD08B5D0F88F
:10136C00C00200F06AFFFFF703FF08BD08B5D0F814
:10137C00C00200F045FFFFF7FBFE08BD00487047B8
:10138C00440600207047704738B512F4804F44D0A3
:10139C000468B4F850309BB291F800C003EBCC0356
:1013AC00023304EB4304B4F80044C4F309048B691E
:1013BC00A34228D31B1B8B618B697BB9056835F85D
:1013CC002C309BB223F4804323F0700383F400533E
:1013DC0043F4004343F0800325F82C3012F0400F07
:1013EC000ED002680D7832F825309BB223F4E0431E
:1013FC0023F0700343F4004343F0C00322F825307C
:10140C0024B9204638BD00238B61D5E723460A89D1
:10141C004969006801F043FFF3E70468B4F8503001
:10142C009BB291F800C003EBCC03063304EB4304EE
:10143C00B4F80044C4F309048B69A3422FD31B1BDB
:10144C008B618B697BB9056835F82C309BB223F422
:10145C00804323F0700383F4005343F4004343F0C0
:10146C00800325F82C3012F0400F0FD1026891F850
:10147C0000C032F82C309BB223F4E04323F070030D
:10148C0043F4004343F0C00322F82C30002CB8D0B6
:10149C0023464A894969006801F001FFB1E700233E
:1014AC008B61CEE770B586B0002800F081800446D1
:1014BC0090F8A932EBB1032384F8A932206800F02C
:1014CC0081FF254655F8106BEC460FCDACE80F00AC
:1014DC002B68CCF80030231D0ECB304600F062FF99
:1014EC00054658B1022384F8A9320125284606B0D6
:1014FC0070BD80F8A832FFF745FEDCE700212068BC
:10150C0000F06AFF2B4616E05A1C02EB820104EB3A
:10151C00C1010120487002EB820104F8313004EB68
:10152C00C1000021C17003EB830004EBC000816398
:10153C00C1630164D3B261688B42E5D316E005EB5D
:10154C00850304EBC303002283F8692183F86851F7
:10155C0083F86B21C3F87821C3F87C2105EB850354
:10156C0004EBC303C3F880210135EDB2A942E6D8E0
:10157C00254655F8106BEC460FCDACE80F002B68E8
:10158C00CCF80030231D0ECB304600F027FF05466B
:10159C0020B1022384F8A9320125A7E7002384F89F
:1015AC002430012384F8A932206801F076FA9DE7F3
:1015BC0001259BE738B590F8A832012B11D00446D1
:1015CC00012580F8A852006800F0F3FE2946204659
:1015DC00FFF7D9FE206801F05EFA002084F8A8021B
:1015EC0038BD0220FCE770B505460C46164612F0D5
:1015FC00400F00F00E810268B2F850309BB20978AF
:10160C0003EBC103023302EB4302B2F80024C2F332
:10161C000902A36993424ED99B1AA361A369002BBB
:10162C0066D16378002B49D12B68B3F8502092B265
:10163C00134403EB0113B3F80424C2F30902A3F817
:10164C000424B3F804246FEA42426FEA524292B285
:10165C00A3F804242B686278002A3CD1B3F85020FC
:10166C0092B21344227803EB0213B3F80C24C2F3A6
:10167C000902A3F80C24B3F80C246FEA42426FEA77
:10168C00524292B2A3F80C2421782846FFF7AEFD03
:10169C0016F4804F41D02A68217832F821309BB261
:1016AC0023F4E04323F0700343F4404343F08003FE
:1016BC0022F8213031E00023A361AFE7012BC9D11F
:1016CC002B68B3F8502092B2134403EB01130022A1
:1016DC00A3F80424BEE7012AD6D1B3F8502092B265
:1016EC001344227803EB02130022A3F80C24CBE75B
:1016FC0016F4804F0DD0286830F821309BB223F4BB
:10170C00E04323F0700343F4404343F0800320F89C
:10171C00213094F82430012B12D02A68217832F829
:10172C0021309BB223F4E04323F0400383F03003D9
:10173C0043F4004343F0800322F82130002070BDB5
:10174C00636913446361E3691344E361216A2369A8
:10175C00994224D3C91A21626278002A44D12A689A
:10176C00B2F8501089B20A44217802EB0112B2F897
:10177C000414C1F30901A2F804143E2B1BD9580917
:10178C0013F01F0F00D10138B2F8041489B2800293
:10179C0080B2014341F40041A2F8041426E021B9BF
:1017AC00002384F824301346D6E7002384F8243031
:1017BC0023620B46D0E74BB9B2F804146FEA4141EF
:1017CC006FEA514189B2A2F804140FE0590813F0E2
:1017DC00010F00D00131B2F8040480B2890289B241
:1017EC000143A2F8041401E0012A06D09BB222891D
:1017FC006169286801F059F98FE72A68B2F850102E
:10180C0089B20A44217802EB011299B2A2F80414AD
:10181C00ECE70268B2F850309BB2097803EBC103D5
:10182C00063302EB4302B2F80024C2F30902A369A7
:10183C0093424FD39B1AA361A369002B67D16378A2
:10184C00002B4AD12B68B3F8502092B2134403EB0F
:10185C000113B3F80424C2F30902A3F80424B3F867
:10186C0004246FEA42426FEA524292B2A3F8042473
:10187C002B686278002A3DD1B3F8502092B2134401
:10188C00227803EB0213B3F80C24C2F30902A3F879
:10189C000C24B3F80C246FEA42426FEA524292B223
:1018AC00A3F80C2421782846FFF7A0FC16F4804FEF
:1018BC007FF433AF2A68217832F821309BB223F4BD
:1018CC00E04323F0700343F4404343F0800322F8D9
:1018DC00213022E70023A361AEE7012BC8D12B688E
:1018EC00B3F8502092B2134403EB01130022A3F877
:1018FC000424BDE7012AD5D1B3F8502092B2134489
:10190C00227803EB02130022A3F80C24CAE716F486
:10191C00804F0DD1286830F821309BB223F4E0437E
:10192C0023F0700343F4404343F0800320F821304C
:10193C0094F82430012B7FF4F0AE63691344636197
:10194C00E3691344E361216A2369994224D3C91AD8
:10195C0021622A686178002943D1B2F8501089B20B
:10196C000A44217802EB0112B2F80C14C1F30901FC
:10197C00A2F80C143E2B1BD9580913F01F0F00D1E1
:10198C000138B2F80C1489B2800280B2014341F4E0
:10199C000041A2F80C1426E021B9002384F824306D
:1019AC001346D6E70023236284F824300B46D0E795
:1019BC004BB9B2F80C146FEA41416FEA514189B24C
:1019CC00A2F80C140FE0590813F0010F00D00131EC
:1019DC00B2F80C0480B2890289B20143A2F80C144B
:1019EC0001E0012906D09BB262896169286801F087
:1019FC005CF892E6B2F8501089B20A44217802EBF6
:101A0C00011299B2A2F80C14EDE72DE9F04105464C
:101A1C002868B0F8443013F4004F00F09282B0F80C
:101A2C004440A3B214F00F0440F0E28013F0100F06
:101A3C006BD003889AB213F4006F40F09D8012F4BF
:101A4C00004FE5D0038823F070031B051B0D43F0FA
:101A5C00800303802868B0F850309BB295F8682159
:101A6C0003EBC203063300EB4303B3F80034C3F3B8
:101A7C000903C5F884318BB1D5F87C1171B1B5F877
:101A8C006E2101F00CFCD5F87C31D5F8842113447F
:101A9C00C5F87C3100212846FFF79CFB2A68138887
:101AAC0099B213F4006FB3D101F44051B1F5405F1A
:101ABC00AED0B2F850309BB21A44B2F80C34C3F327
:101ACC000903A2F80C34D5F878313E2B77D9590993
:101ADC0013F01F0F00D10139B2F80C349BB28902FC
:101AEC0089B20B4343F40043A2F80C342A681388E0
:101AFC009BB223F4804323F0700383F4405343F4EC
:101B0C00004343F08003138082E703889BB223F4E5
:101B1C00E14323F070036FEA43436FEA53439BB2F4
:101B2C0003802A68B2F850309BB295F8281003EB6A
:101B3C00C103023302EB4302B2F80034C3F30903CE
:101B4C006B64EA6B1A44EA6300212846FFF74EFBEC
:101B5C0095F82430002B3FF45BAF2B6C002B7FF4FB
:101B6C0057AF95F824302A6843F08003A2F84C3024
:101B7C00002385F824304BE7B0F850309BB295F831
:101B8C00682103EBC203063300EB4303B3F80034C4
:101B9C00C3F30903C5F88431B5F86E2105F52C7132
:101BAC0001F07DFB2A68138823F070031B051B0DC5
:101BBC0043F0800313802846FFF704FB28E74BB95A
:101BCC00B2F80C346FEA43436FEA53439BB2A2F86A
:101BDC000C348BE7590813F0010F00D00131B2F827
:101BEC000C3498B28B029BB20343A2F80C347DE701
:101BFC0030F824309EB213F4004F4CD116F0800F05
:101C0C003FF406AF621C02EB820105EBC1012868B0
:101C1C0030F824309BB223F4E14323F070036FEAD5
:101C2C0043436FEA53439BB220F82430CB78012B0B
:101C3C0000F0F28016F4807F40F07E812868B0F8C6
:101C4C0050309BB2621C02EB820215F8326003EB3F
:101C5C00C603023300EB4303B3F80034C3F30903A8
:101C6C0004EB840205EBC202126C9A4240F24C81E6
:101C7C0004EB840705EBC707D21A3A6404EB840221
:101C8C0005EBC202126C002A40F045813146284611
:101C9C00FFF7ACFABCE630F8243023F070031B05D8
:101CAC001B0D43F0800320F8243004EB8401C900A1
:101CBC0001F5B47105EB010804EB840305EBC303D8
:101CCC0093F87431002B42D12868B0F850309BB295
:101CDC0004EB840205EBC20292F8682103EBC20309
:101CEC00063300EB4303B3F80074C7F3090717BBC3
:101CFC0004EB840305EBC303D3F884213A44C3F803
:101D0C008421D3F87C213A44C3F87C21D3F8803168
:101D1C003BB104EB840305EBC303D3F878319F424A
:101D2C0075D204EB840305EBC30393F868112846C2
:101D3C00FFF750FA62E704EB840105EBC1013B4667
:101D4C00B1F86E21D1F87C1101F0A9FAD0E704EBBF
:101D5C00840305EBC30393F86B31022B35D0296850
:101D6C0004EB840205EBC20292F8680131F82030D2
:101D7C009BB223F4E04323F0700343F4004343F09D
:101D8C00C00321F82030286892F8682130F82230FE
:101D9C0013F4804F20D0B0F850309BB203EBC20349
:101DAC00023300EB4303B3F80074C7F30907002FA9
:101DBC009ED004EB840105EBC1013B46B1F87021C8
:101DCC00D1F87C1101F06BFA92E732464146284675
:101DDC00FFF7DAFA07468BE7B0F850309BB203EB0B
:101DEC00C203063300EB4303B3F80074C7F30907CF
:101DFC00002F3FF47DAF04EB840105EBC1013B46A2
:101E0C00B1F87221D1F87C1101F049FA70E7414622
:101E1C00286800F05DFEF1E604EB840305EBC303D8
:101E2C0000221A6493F83430FBB116F0400F37D00F
:101E3C004B781BBB2B68B3F8502092B21344621C36
:101E4C0002EB820215F8322003EB0213B3F80424E0
:101E5C00C2F30902A3F80424B3F804246FEA424243
:101E6C006FEA524292B2A3F80424013404EB8404C6
:101E7C0015F834102846FFF7B9F9C9E5012BF4D150
:101E8C002B68B3F8502092B21344621C02EB82020E
:101E9C0015F8322003EB02130022A3F80424E4E724
:101EAC002A68631C03EB830305EBC3035B78D3B98C
:101EBC00B2F850309BB21344621C02EB820215F84C
:101ECC00322003EB0213B3F80C24C2F30902A3F87B
:101EDC000C24B3F80C246FEA42426FEA524292B2DD
:101EEC00A3F80C24C1E7012BBFD1B2F850309BB240
:101EFC001344621C02EB820215F8322003EB02132E
:101F0C000022A3F80C24B0E704EB840205EBC20218
:101F1C0000271764B2E604EB840205EBC202D66B11
:101F2C001E44D663526C04EB840405EBC4041344C6
:101F3C00636400F0CDFD6BE532462846FFF753FB9A
:101F4C0066E50020BDE8F08190F8A832012B0DD099
:101F5C0010B50446012380F8A83280F824100068DC
:101F6C0000F093FD002084F8A80210BD02207047F9
:101F7C0010B584B00446006800F091FD10F4004FD9
:101F8C0020D110F4806F21D110F4804F2FD110F498
:101F9C00005F37D110F4805F3ED110F4006F40F039
:101FAC00878010F4007F40F0AE8010F4807F27D043
:101FBC002268B2F844309BB223F480739BB2A2F82F
:101FCC0044301DE02046FFF720FD19E02268B2F8EE
:101FDC0044309BB223F480639BB2A2F84430204679
:101FEC00FFF715F900212046FFF7AEFF08E0226845
:101FFC00B2F844309BB223F480439BB2A2F8443035
:10200C0004B010BD2268B2F844309BB223F40053E4
:10201C009BB2A2F84430F3E72268B2F840309BB28E
:10202C0023F004039BB2A2F840302268B2F840308F
:10203C009BB223F008039BB2A2F840302046FFF776
:10204C0009F92268B2F844309BB223F480539BB256
:10205C00A2F84430D4E7226832F8231004AA02EB29
:10206C00430222F8101C0133DBB2072BF3D9226890
:10207C00B2F840309BB243F00103A2F84030226822
:10208C00B2F840309BB223F001039BB2A2F840306F
:10209C002368B3F8442012F4806FF9D0B3F84420CD
:1020AC0092B222F4806292B2A3F8442000230BE097
:1020BC000023DAE7226804A901EB430131F8101C74
:1020CC0022F823100133DBB2072BF3D92268B2F8C4
:1020DC0040309BB243F00803A2F840302268B2F8BB
:1020EC0044309BB223F400639BB2A2F844302268C4
:1020FC00B2F840309BB243F00403A2F840302046C3
:10210C00FFF798F87CE72268B2F844309BB223F4CE
:10211C0000739BB2A2F844302046FFF772F86FE7C9
:10212C0010B50446084611F0800F25D101F0070CBC
:10213C000CEB8C01C90001F5B47E04EB0E010CEB29
:10214C008C0C04EBCC0C4FF0000E8CF869E100F019
:10215C00070008700A61CB70022B1AD094F8A832D1
:10216C00012B19D0012384F8A832206800F047F91C
:10217C00002084F8A80210BD01F0070C0CF1010C32
:10218C000CEB8C0104EBC1014FF0010E81F801E066
:10219C00DDE700230B71E1E70220ECE710B5044604
:1021AC000B4611F0800F1FD101F0070202EB8201E8
:1021BC00C90001F5B471014402EB820200EBC202CA
:1021CC00002082F8690103F007030B7094F8A83221
:1021DC00012B13D0012384F8A832206800F0F4FA04
:1021EC00002084F8A80210BD01F00702013202EBB6
:1021FC00820100EBC10101204870E4E70220F2E704
:10220C0010B501F0070C0CEB8C01C90001F5B47191
:10221C000CEB8C0E00EBCE0ECEF87C21CEF8803180
:10222C000024CEF884418EF869418EF868C10144CF
:10223C00006800F04DFC204610BD38B501F00704D5
:10224C0004F1010C0CEB8C0104EB840E00EBCE0EB4
:10225C00CEF83C20CEF8403001228EF84C20CEF83F
:10226C0048300025CEF8445000EBC1035A7000F8FA
:10227C0031401946006800F02BFC284638BD38B5B3
:10228C0001F007054268954231D804460B4611F01F
:10229C00800F1ED101EB8101C90001F5B47101441D
:1022AC0003EB830300EBC303002283F869210123B2
:1022BC008B700D7094F8A832012B1AD0012384F87E
:1022CC00A832206800F06BFB5DB1002084F8A802F6
:1022DC0038BD6B1C03EB830100EBC10101224A707A
:1022EC00E5E704F52C71206800F0DDFBEDE701203B
:1022FC00EEE70220ECE70B4601F00F014268914239
:10230C0030D810B5044613F0800F21D103F007022A
:10231C0002EB8201C90001F5B471014402EB8202A7
:10232C0000EBC202002082F8690100228A7003F0DF
:10233C0007030B7094F8A832012B15D0012384F8F5
:10234C00A832206800F050FB002084F8A80210BDD1
:10235C0003F00702013202EB820100EBC101012004
:10236C004870E2E7012070470220F0E711F0800F7F
:10237C000BD001F00701013101EB810100EBC10031
:10238C0052B90273C3800020704701EB8101C90070
:10239C0001F5B4710844F3E70122027303811B0CAD
:1023AC004381F0E784B001A880E80E00002004B05F
:1023BC00704703460020A3F844004FF43F42A3F8B3
:1023CC0040207047B0F8403023F47C535B045B0C26
:1023DC00A0F84030002070470020704784B084463D
:1023EC0001A880E80E000123ACF840300020ACF8C6
:1023FC004000ACF84400ACF8500004B0704710B585
:10240C00034691F800C030F82C2092B222F4EC4232
:10241C0022F0700292B2C878032861D8DFE800F08D
:10242C00555C0258002048F2800E42EA0E0223F856
:10243C002C2091F800C033F82C2092B222F4E04208
:10244C0022F0700242EA0C0242EA0E0223F82C201F
:10245C000A7B002A40F0DC804A78002A51D0B3F87D
:10246C00502092B21A440C7802EB0412B1F806C058
:10247C004FEA5C0C4FEA4C0CA2F800C40C7833F811
:10248C00242012F0400F0CD033F8242092B222F406
:10249C00E04222F0700242F4004242F0C00223F803
:1024AC002420CA78012A1DD0097833F8212092B251
:1024BC0022F4E04222F0400282F0200242F4004278
:1024CC0042F0800223F8212017E142F40072AAE7BF
:1024DC0042F4C0620020A6E742F480620020A2E72A
:1024EC000120A0E7097833F8212092B222F4E042CF
:1024FC0022F0400242F4004242F0800223F82120F4
:10250C00FBE0B3F8502092B21A440C7802EB0412A0
:10251C00B1F806C04FEA5C0C4FEA4C0CA2F808C4A8
:10252C00B3F8502092B21A440C7802EB0412B2F8B1
:10253C000CC4CCF3090CA2F80CC40C693E2C39D990
:10254C004FEA541E14F01F0F01D10EF1FF3EB2F8EA
:10255C000CC41FFA8CFC4FEA8E2E1FFA8EFE4CEA2E
:10256C000E0C4CF4004CA2F80CC40C7833F824205C
:10257C0012F4804F0CD033F8242092B222F4E042B3
:10258C0022F0700242F4404242F0800223F82420F0
:10259C00097869BB33F8212092B222F4804222F0F0
:1025AC00700282F4405242F4004242F0800223F85E
:1025BC002120A2E04CB9B2F80C446FEA44446FEA13
:1025CC005444A4B2A2F80C44CFE74FEA540C14F0D4
:1025DC00010F01D00CF1010CB2F80C44A4B24FEA7B
:1025EC008C2C1FFA8CFC44EA0C04A2F80C44BCE7BB
:1025FC0033F8212092B222F4804222F0700282F44D
:10260C00005242F4004242F0800223F8212074E090
:10261C00CA78022A72D00C7833F8242092B222F4B1
:10262C00E24222F0700242F4004242F0800223F8AF
:10263C002420B3F8502092B21A4491F800C002EB57
:10264C000C12B1F808C04FEA5C0C4FEA4C0CA2F823
:10265C0000C4B3F8502092B21A4491F800C002EBB7
:10266C000C12B1F80AC04FEA5C0C4FEA4C0CA2F801
:10267C0008C44A78002A50D10C7833F8242012F47C
:10268C00804F0CD033F8242092B222F4E04222F096
:10269C00700242F4404242F0800223F824200C786D
:1026AC0033F8242012F0400F0CD033F8242092B2CF
:1026BC0022F4E04222F0700242F4004242F0C002E6
:1026CC0023F8242091F800C033F82C2092B222F485
:1026DC00804222F0700282F4405248F2800422437D
:1026EC0023F82C20097833F8212092B222F4E0420E
:1026FC0022F04002224323F8212010BD0C7833F83D
:10270C00242092B222F4E04222F0700242F4014200
:10271C0042F0800223F824208BE70C7833F8242035
:10272C0012F4804F0CD033F8242092B222F4E04201
:10273C0022F0700242F4404242F0800223F824203E
:10274C000C7833F8242012F0400F0CD033F82420EE
:10275C0092B222F4E04222F0700242F4004242F0C3
:10276C00C00223F82420CA78012A1ED00C7833F832
:10277C00242092B222F4E04222F0400282F02002A5
:10278C0042F4004242F0800223F82420097833F806
:10279C00212092B222F4804222F0700242F40042D4
:1027AC0042F0800223F82120A7E70C7833F824208C
:1027BC0092B222F4E04222F0400242F4004242F093
:1027CC00800223F82420E1E70B7B002B46D14B78C9
:1027DC0013B30A7830F8223013F0400F0CD030F8D5
:1027EC0022309BB223F4E04323F0700343F4004304
:1027FC0043F0C00320F822300A7830F822309BB224
:10280C0023F4E04323F0400343F4004343F08003FC
:10281C0020F82230002070470A7830F8223013F468
:10282C00804F0CD030F822309BB223F4E04323F0DD
:10283C00700343F4404343F0800320F822300A78BD
:10284C0030F822309BB223F4804323F0700343F41E
:10285C00004343F0800320F82230DBE74B78002B59
:10286C004ED10A7830F8223013F4804F0CD030F867
:10287C0022309BB223F4E04323F0700343F4404333
:10288C0043F0800320F822300A7830F8223013F01D
:10289C00400F0CD030F822309BB223F4E04323F0ED
:1028AC00700343F4004343F0C00320F822300A784D
:1028BC0030F822309BB223F4E04323F0700343F44E
:1028CC00004343F0C00320F822300A7830F822305D
:1028DC009BB223F4804323F0700348F2800C43EA4C
:1028EC000C0320F822300A7830F822309BB223F403
:1028FC00E04323F0400343EA0C0320F8223089E73D
:10290C000A7830F8223013F4804F0CD030F8223093
:10291C009BB223F4E04323F0700343F4404343F0B1
:10292C00800320F822300A7830F8223013F0400F60
:10293C000CD030F822309BB223F4E04323F0700328
:10294C0043F4004343F0C00320F822300A7830F8F7
:10295C0022309BB223F4E04323F0700343F4404352
:10296C0043F0800320F822300A7830F822309BB2F2
:10297C0023F4E04323F0400348F2800C43EA0C03B9
:10298C0020F822300A7830F822309BB223F48043AE
:10299C0023F0700343EA0C0320F822303AE74B781B
:1029AC008BB10A7830F822309BB223F4E04323F049
:1029BC00400383F0100343F4004343F0800320F8FA
:1029CC002230002070470A7830F822309BB223F472
:1029DC00804323F0700383F4805343F4004343F0AB
:1029EC00800320F82230ECE70B7B002B4BD14B788B
:1029FC0033B30A7830F8223013F0400F0CD030F893
:102A0C0022309BB223F4E04323F0700343F40043E1
:102A1C0043F0C00320F82230CB78012B33D00A7856
:102A2C0030F822309BB223F4E04323F0400383F0D0
:102A3C00200343F4004343F0800320F8223022E0CB
:102A4C000A7830F8223013F4804F0CD030F8223052
:102A5C009BB223F4E04323F0700343F4404343F070
:102A6C00800320F822300A7830F822309BB223F40D
:102A7C00804323F0700383F4405343F4004343F04A
:102A8C00800320F822300020704711B98023A0F871
:102A9C004C30002070470020704700207047B0F881
:102AAC00440080B270470020704701335B0800EB94
:102ABC00420000F5806008E00A7891F801C042EA13
:102ACC000C2220F8042B0231013B002BF4D170476F
:102ADC0070B505460C464A78012A3BD00B7B002B7F
:102AEC0040F0A6828B690A69934240F284829B1A59
:102AFC008B61B5F850309BB22B44217803EB01135A
:102B0C00B3F80C14C1F30901A3F80C143E2A40F2DB
:102B1C007682510912F01F0F00D10139B3F80C2441
:102B2C0092B2890289B20A4342F40042A3F80C24FF
:102B3C00227835F822309BB223F4804323F07003C3
:102B4C0083F4405343F4004343F0800325F82230D0
:102B5C00002070BD8E6909698E4200D90E46237B18
:102B6C0073B3E378022B4DD0236A9B1B236221782D
:102B7C0035F8213013F0400F00F0F581002A40F0B9
:102B8C00E281B5F850309BB22B4403EB0113B3F840
:102B9C000C24C2F30902A3F80C243E2E40F2BA8195
:102BAC00710916F01F0F00D10139B3F80C2492B241
:102BBC00890289B20A4342F40042A3F80C24CBE107
:102BCC00B6B23346E28861692846FFF76EFFB5F866
:102BDC0050309BB22B44227803EB0213A3F804640D
:102BEC00227835F822309BB223F4E04323F04003E3
:102BFC0083F0300343F4004343F0800325F8223084
:102C0C000020A6E7236A994280F06681227835F885
:102C1C0022309BB223F4E04323F0700343F40143CE
:102C2C0043F0800325F82230236A9B1B2362227811
:102C3C0035F8223013F0400F00F0A7806378B3BB57
:102C4C00B5F850309BB22B4403EB0213B3F80C24B1
:102C5C00C2F30902A3F80C243E2E0FD9710916F009
:102C6C001F0F00D10139B3F80C2492B2890289B23A
:102C7C000A4342F40042A3F80C241AE04EB9B3F80C
:102C8C000C246FEA42426FEA524292B2A3F80C242F
:102C9C000FE0720816F0010F00D00132B3F80C14DB
:102CAC0089B2920292B20A43A3F80C2401E0012BE0
:102CBC0030D0B3B2628961692846FFF7F6FE6369CA
:102CCC0033446361236A226993422DD99B1B23628F
:102CDC006378002B45D1B5F850309BB22B44227849
:102CEC0003EB0213B3F80424C2F30902A3F804247F
:102CFC003E2E1DD9710916F01F0F00D10139B3F802
:102D0C00042492B2890289B20A4342F40042A3F825
:102D1C00042428E0B5F850309BB22B4403EB02138B
:102D2C00B2B2A3F80C24C4E7002222621E46CFE7FD
:102D3C004EB9B3F804246FEA42426FEA524292B29F
:102D4C00A3F804240FE0720816F0010F00D0013232
:102D5C00B3F8041489B2920292B20A43A3F8042481
:102D6C0001E0012B06D0B3B2228961692846FFF736
:102D7C009CFE35E7B5F850309BB22B44227803EB20
:102D8C000213B2B2A3F80424EDE76378B3BBB5F831
:102D9C0050309BB22B4403EB0213B3F80424C2F360
:102DAC000902A3F804243E2E0FD9710916F01F0F47
:102DBC0000D10139B3F8042492B2890289B20A43D2
:102DCC0042F40042A3F804241AE04EB9B3F80424E8
:102DDC006FEA42426FEA524292B2A3F804240FE027
:102DEC00720816F0010F00D00132B3F8041489B246
:102DFC00920292B20A43A3F8042401E0012B30D0D2
:102E0C00B3B2228961692846FFF74FFE63693344E8
:102E1C006361236A226993422DD99B1B23626378D9
:102E2C00002B45D1B5F850309BB22B44227803EBE4
:102E3C000213B3F80C24C2F30902A3F80C243E2E9F
:102E4C001DD9710916F01F0F00D10139B3F80C24EC
:102E5C0092B2890289B20A4342F40042A3F80C24CC
:102E6C0028E0B5F850309BB22B4403EB0213B2B2FE
:102E7C00A3F80424C4E7002222621E46CFE74EB911
:102E8C00B3F80C246FEA42426FEA524292B2A3F8B2
:102E9C000C240FE0720816F0010F00D00132B3F8C9
:102EAC000C1489B2920292B20A43A3F80C2401E0EA
:102EBC00012B06D0B3B2628961692846FFF7F5FD94
:102ECC008EE6B5F850309BB22B44227803EB0213FC
:102EDC00B2B2A3F80C24EDE7217835F8212092B298
:102EEC0022F4E24222F0700242F4004242F08002EC
:102EFC0025F82120B5F8502092B22A44217802EB13
:102F0C0001129BB2A2F80434228961692846FFF7AA
:102F1C00CCFD65E64EB9B3F80C246FEA42426FEA79
:102F2C00524292B2A3F80C2416E0720816F0010F6C
:102F3C0000D00132B3F80C1489B2920292B20A4357
:102F4C00A3F80C2408E0B5F850309BB22B4403EBEB
:102F5C000113B2B2A3F80C24B3B26289616928469A
:102F6C00FFF7A3FD3CE6B2BBB5F850309BB22B4447
:102F7C0003EB0113B3F80424C2F30902A3F80424ED
:102F8C003E2E0FD9710916F01F0F00D10139B3F87D
:102F9C00042492B2890289B20A4342F40042A3F893
:102FAC00042421E04EB9B3F804246FEA42426FEADC
:102FBC00524292B2A3F8042416E0720816F0010FE4
:102FCC0000D00132B3F8041489B2920292B20A43CF
:102FDC00A3F8042408E0B5F850309BB22B4403EB63
:102FEC000113B2B2A3F80424B3B222896169284652
:102FFC00FFF75BFDF4E500228A611A4679E54AB9D0
:10300C00B3F80C246FEA42426FEA524292B2A3F830
:10301C000C248DE5510812F0010F00D00131B3F8EA
:10302C000C2492B2890289B20A43A3F80C247FE5DE
:10303C00CB78022B4DD0012B40F02F81896923696D
:10304C00994240F2E680C91AA161F2B9B5F8502054
:10305C0092B22A44217802EB0112B2F80414C1F3A3
:10306C000901A2F804143E2B40F2D780580913F042
:10307C001F0F00D10138B2F8041489B2800280B25B
:10308C00014341F40041A2F804146278002A40F094
:10309C00F680B5F8502092B22A44217802EB011246
:1030AC00B2F80C14C1F30901A2F80C143E2B40F237
:1030BC00CD80590913F01F0F00D10139B2F80C342F
:1030CC009BB2890289B20B4343F40043A2F80C343F
:1030DC002EE5F2B9B0F850309BB203440A7803EBFA
:1030EC000213B3F80424C2F30902A3F804240A69F6
:1030FC003E2A31D9510912F01F0F00D10139B3F812
:10310C00042492B2890289B20A4342F40042A3F821
:10311C0004246378002B51D1B5F850309BB22B446A
:10312C00227803EB0213B3F80C24C2F30902A3F8C0
:10313C000C2422693E2A28D9510912F01F0F00D104
:10314C000139B3F80C2492B2890289B20A4342F4D1
:10315C000042A3F80C2433E04AB9B3F804246FEA14
:10316C0042426FEA524292B2A3F80424D1E75108CA
:10317C0012F0010F00D00131B3F8042490B28A028E
:10318C0092B20243A3F80424C3E74AB9B3F80C245F
:10319C006FEA42426FEA524292B2A3F80C240FE05B
:1031AC00510812F0010F00D00131B3F80C2490B289
:1031BC008A0292B20243A3F80C2401E0012B1DD029
:1031CC00E369002B3FF4B4AC227835F8221044F2BA
:1031DC00400303EA01008B4302D000287FF4A8AC23
:1031EC0035F822309BB223F4E04323F0700343F410
:1031FC00004343F0C00325F8223099E4B5F8503071
:10320C009BB22B44227803EB0213228AA3F80C24E2
:10321C00D6E70023A3610B4617E74BB9B2F80414A9
:10322C006FEA41416FEA514189B2A2F804142CE7CC
:10323C00590813F0010F00D00131B2F8040480B228
:10324C00890289B20143A2F804141EE74BB9B2F803
:10325C000C346FEA43436FEA53439BB2A2F80C342D
:10326C0066E4590813F0010F00D00131B2F80C34A8
:10327C0098B28B029BB20343A2F80C3458E4012A97
:10328C007FF456ACB5F8502092B22A44217802EB68
:10329C0001129BB2A2F80C344AE4012059E410B498
:1032AC005C0800EB420000F5806007E030F8042B6E
:1032BC000A70C2F307224A700231013C002CF5D18E
:1032CC0013F0010F01D003880B7010BC704798B13C
:1032DC0008B50346D0F8B40210B10020C3F8B4020C
:1032EC0009B1C3F8B012012183F89C121A70184668
:1032FC00FDF7B6FF002008BD0220704719B1C0F8D9
:10330C00B412002070470220704708B5FDF7DCFFAF
:10331C00002008BD08B5D0F8B4322BB11B68984713
:10332C0000B908BD0220FCE70220FAE708B5D0F886
:10333C00B4325B689847002008BD38B5044600F5E8
:10334C002A75284600F035F90123C4F89432B4F8F4
:10335C00AE32C4F8983294F8A81201F01F03012B76
:10336C0008D0022B0BD07BB92946204600F0D0FAAE
:10337C00002038BD2946204600F0FEFAF8E7294621
:10338C00204600F029FBF3E701F080012046FDF711
:10339C00B6FFEDE738B504460D4691BB1346D0F8A1
:1033AC009422032A03D0052A24D0084633E0D0F80F
:1033BC006011D0F8642191420DD9891AC0F86011BE
:1033CC008A4206D98AB21946204600F028FC2846C3
:1033DC0021E092B2F7E7D0F8B4321B691BB190F838
:1033EC009C22032A04D0204600F021FC284612E03F
:1033FC009847F8E70021C0F89412FDF780FF2846A3
:10340C0009E0D0F8B4329B6933B190F89C22032ABE
:10341C0004D19847002038BD0220FCE70220FAE7CF
:10342C0038B504460D46002953D11346D0F89422E2
:10343C00022A0CD0042A00D01AB980212046FDF7AC
:10344C005EFF94F8A032012B3ED0284638BD026AAC
:10345C00416A8A421BD8C269B2FBF1F301FB132308
:10346C002BB9914203D8D0F898329A421CD3D4F895
:10347C00B432DB681BB194F89C22032A21D0802142
:10348C002046FDF73CFF204600F0DCFBD9E7521A42
:10349C00026292B2194600F0BAFB00231A46194692
:1034AC002046FDF763FFCCE70022114600F0AFFB8E
:1034BC000021C4F898120B460A462046FDF756FF29
:1034CC00BFE720469847DAE7002384F8A032284665
:1034DC00BCE7D0F8B4325B6933B190F89C22032A74
:1034EC0004D198470020B1E70220AFE70220ADE7F6
:1034FC0070B50446402300221146FDF7EDFE012570
:10350C00C4F858514026C4F8646133460022802127
:10351C002046FDF7E1FEA561666284F89C5200230B
:10352C00C4F894326360C4F8A432D4F8B8322BB126
:10353C00D4F8B4325B68002120469847002070BD57
:10354C0001740020704790F89C3280F89D3204235F
:10355C0080F89C320020704790F89C32042B01D0EC
:10356C000020704790F89D3280F89C32F8E708B53F
:10357C0090F89C32032B01D0002008BDD0F8B43257
:10358C00DB69002BF8D09847F6E70346002002E0F1
:10359C000130C0B201331A78002AF9D1704708B54E
:1035AC004B88012B00D008BDC0F8A43200F03FFBC3
:1035BC00F9E70B7803704B7843708B78CA7803EB80
:1035CC00022343800B794A7903EB022383808B79A6
:1035DC00CA7903EB0223C380704710B504468021DF
:1035EC00FDF78DFE00212046FDF789FE10BD30B59C
:1035FC0083B005460C460023ADF806304A88130A02
:10360C00013B062B00F2A480DFE803F004182CA287
:10361C00A2869300D0F8B0321B680DF10601007C35
:10362C009847BDF806201AB1E388002B40F094802F
:10363C00E388002B00F09A8003B030BD037C43B9C3
:10364C00D0F8B4329B6A0DF1060098470223437000
:10365C00E7E7D0F8B432DB6A0DF106009847022395
:10366C004370DEE7D2B2052A52D8DFE802F003102D
:10367C001D2A3744D0F8B0325B6823B10DF1060136
:10368C00007C9847CDE72146FFF7A7FFD4E7D0F899
:10369C00B0329B6823B10DF10601007C9847C0E75E
:1036AC002146FFF79AFFC7E7D0F8B032DB6823B1A9
:1036BC000DF10601007C9847B3E72146FFF78DFF1B
:1036CC00BAE7D0F8B0321B6923B10DF10601007CCA
:1036DC009847A6E72146FFF780FFADE7D0F8B03258
:1036EC005B6923B10DF10601007C984799E72146EF
:1036FC00FFF773FFA0E7D0F8B0329B6923B10DF14F
:10370C000601007C98478CE72146FFF766FF93E79C
:10371C002146FFF762FF8FE7037C33B9D0F8B43250
:10372C005B6B0DF1060098477BE72146FFF755FFD1
:10373C0082E7037C43B9D0F8B4321B6B0DF1060061
:10374C009847072343706CE72146FFF746FF73E762
:10375C002146FFF742FF6FE79A4228BF1A46ADF8A1
:10376C0006200146284600F045FA61E7284600F09D
:10377C005EFA61E738B504468B88F3B9CB88E3B9B8
:10378C004B887F2B19D803F07F0590F89C32032BC4
:10379C000CD080F89E522946FDF7D8FD204600F04B
:1037AC0046FA35B1022384F89C3209E0FFF715FF85
:1037BC0006E0012384F89C3202E02046FFF70DFF5F
:1037CC0038BD000038B504460D468978284B197071
:1037DC0001290ED890F89C32022B0ED0032B21D04D
:1037EC002946FFF7FAFE224B19782046FFF79EFD7B
:1037FC0002E02946FFF7F1FE38BD81B14160032399
:10380C0080F89C32FFF786FD022803D0204600F09A
:10381C000EFAF1E729462046FFF7DFFEECE700F051
:10382C0006FAE9E789B1436899421DD0D9B2FFF78E
:10383C007DFD0F4B197861602046FFF76BFD022868
:10384C000DD0204600F0F3F9D6E7022380F89C3225
:10385C004160FFF76BFD204600F0E9F9CCE7294603
:10386C002046FFF7BAFEC7E700F0E1F9C4E700BF56
:10387C004809002008B5CB88012B0AD190F89C325E
:10388C00022B09D9032B11D10122011D00F0B2F931
:10389C0001E0FFF7A2FE08BD5BB23BB1014600237D
:1038AC0041F8083F012200F0A5F9F4E7FFF795FE77
:1038BC00F1E708B590F89C32013B022B12D8CB886B
:1038CC00022B0CD10123C360D0F8A4320BB103231B
:1038DC00C360022200F10C0100F08CF908BDFFF767
:1038EC007CFEFBE7FFF779FEF8E708B590F89C3211
:1038FC00013B022B09D84B88012B00D008BD0023BB
:10390C00C0F8A43200F093F9F8E7FFF766FEF5E78C
:10391C0008B50B7803F06003202B05D0402B03D0A7
:10392C0043B1FFF75AFE03E0D0F8B4329B689847D6
:10393C00002008BD4B78092B1BD8DFE803F01117CA
:10394C001A141A08051A0E0BFFF751FEF0E7FFF7D1
:10395C0011FFEDE7FFF736FFEAE7FFF78BFFE7E72D
:10396C00FFF7A7FFE4E7FFF71AFEE1E7FFF7BDFF5C
:10397C00DEE7FFF732FEDBE738B505460C460B7881
:10398C0003F06003202B06D0402B04D01BB1FFF7B3
:10399C0024FE002038BD95F89C32013B022B16D832
:1039AC002379012B0ED8D5F8B4329B6821462846D2
:1039BC009847E388002BECD10028EAD1284600F088
:1039CC0036F9E6E721462846FFF707FEE1E72146F0
:1039DC002846FFF702FEDCE770B505468B880C78AD
:1039EC0004F06004202C07D0DAB2402C04D05CB177
:1039FC00FFF7F3FD002405E0D5F8B4329B682846A8
:103A0C0098470024204670BD202C09D04E78012EFA
:103A1C0033D0032E0AD0002E55D0FFF7DEFDF1E790
:103A2C00D0F8B4329B6898470446EBE790F89C3288
:103A3C00022B04D0032B11D0FFF7CFFDE2E70AB124
:103A4C00802A03D12846FFF7C8FDDBE71146FDF7B6
:103A5C0056FC80212846FDF752FCD3E74B8823B94E
:103A6C001AB1802A01D0CB881BB1284600F0DFF8B0
:103A7C00C8E71146FDF743FCF7E790F89C32022BA0
:103A8C0004D0032B11D0FFF7A8FDBBE70AB1802AA5
:103A9C0003D12846FFF7A1FDB4E71146FDF72FFC33
:103AAC0080212846FDF72BFCACE74B88002BA9D1D5
:103ABC0012F07F0F03D1284600F0B9F8A2E71146A7
:103ACC00FDF725FCF7E790F89C02022806D00328A6
:103ADC0029D02846FFF781FD344693E70AB1802AA6
:103AEC0013D113F0800F15D102F07F0202EB82028A
:103AFC00910001F5A8712944043100230B600222C6
:103B0C00284600F077F834467CE72846FFF765FD39
:103B1C00344677E702F07F0202EB8202910010310B
:103B2C0029440431E9E75BB2002B1FDB02F00F00E4
:103B3C0000EB800005EB8000D0F8580120B3002B7F
:103B4C0027DB02F07F0303EB83039C0004F5A874CE
:103B5C002C4404340AB1802A24D10023236002228D
:103B6C002146284600F046F834464BE702F00F0099
:103B7C0000EB800005EB800080690028DFD128462F
:103B8C00FFF72BFD34463DE72846FFF726FD34466C
:103B9C0038E702F07F0303EB83039C0010342C44C2
:103BAC000434D7E711462846FDF7B9FB10B10123C1
:103BBC002360D4E700232360D1E7D0B170B50D4664
:103BCC0016460446FFF7E1FC431C5B009BB23380B6
:103BDC002B7003236B70022307E001345A1CD2B202
:103BEC00E8540233DBB20021A95420780028F4D128
:103BFC0070BD704708B513460222C0F89422C36109
:103C0C0003620A460021FDF7A9FB002008BD08B598
:103C1C0013460A460021FDF7A1FB002008BD08B59C
:103C2C0013460A460021FDF7A1FB002008BD08B58C
:103C3C000423C0F8943200231A461946FDF78EFB74
:103C4C00002008BD08B50523C0F8943200231A469D
:103C5C001946FDF78BFB002008BD000022230380D2
:103C6C0000487047FC000020222303800048704766
:103C7C00D80000202223038000487047B4000020A5
:103C8C00D0F8B83200201873704700000A23038064
:103C9C00004870479C00002070B582B0D0F8B85234
:103CAC000023ADF806300C7814F0600425D0202CDD
:103CBC0072D14B78023B092B1BD8DFE803F01409B7
:103CCC001A1A1A1A1A1A0F058B782B60002466E040
:103CDC0001222946FFF78EFF002460E04B881B0A67
:103CEC006B6000245BE00122291DFFF783FF002499
:103CFC0055E0FFF772FC022451E04E780B2E47D8AA
:103D0C00DFE806F0064646464646154646462D3B37
:103D1C0090F89C32032B03D0FFF75FFC02243EE0AB
:103D2C0002220DF10601FFF765FF344637E04B88A0
:103D3C001B0A222B09D0212B0DD1CA88092A28BF96
:103D4C0009221849FFF756FF29E0CA883F2A28BFE5
:103D5C003F221549F6E7FFF740FC02241FE090F8DC
:103D6C009C32032B03D0FFF738FC022417E001220E
:103D7C0005F10801FFF73EFF11E090F89C32032B90
:103D8C0002D18B78AB600AE0FFF727FC022406E037
:103D9C00FFF723FC022402E0FFF71FFC022420465D
:103DAC0002B070BDA80000205C00002010B50446D5
:103DBC008121FDF79CFA0023E362D4F8B80220B10C
:103DCC00FDF7E0FA0023C4F8B832002010BD10B59E
:103DDC000446042303228121FDF77EFA0123E362CA
:103DEC001020FDF7CBFAC4F8B80218B10346002036
:103DFC00187310BD0220FCE710B5D0F8B84290F84B
:103E0C009C32032B01D0002010BD237B002BFAD158
:103E1C000123237313460A468121FDF79FFAF2E72B
:103E2C00FDF7EAF80B480C490C4A002302E0D45881
:103E3C00C4500433C4188C42F9D3094A094C0023EA
:103E4C0001E013600432A242FBD300F017F8FCF738
:103E5C0001FA70470000002058010020883F00083C
:103E6C00580100204C090020FEE70346024493420F
:103E7C0000D1704703F8011BF9E7000070B500266C
:103E8C000C4D0D4C641BA410A64209D100F01AF87D
:103E9C0000260A4D0A4C641BA410A64205D170BD25
:103EAC0055F8043B98470136EEE755F8043B984724
:103EBC000136F2E7803F0008803F0008803F000891
:103ECC00843F0008F8B500BFF8BC08BC9E4670479C
:0C3EDC00F8B500BFF8BC08BC9E4670475B
:103EE80064656C65746520006D72672000000000D1
:103EF800696E20746F206D617374657220617361DF
:103F080070000000706C7A200000000053544D339C
:103F1800322048756D616E20696E746572666163E2
:103F28006500000053544D6963726F656C65637476
:103F3800726F6E696373000048494420436F6E6670
:103F48006967000048494420496E74657266616378
:103F580065000000010200000203040506070809C5
:103F68000A0B0C0D0E0F10100000000000000000DE
:083F7800010203040607080919
:043F80003101000803
:043F84000D01000823
:103F880001000000100000000024F4001A030000E3
:103F98000000000000000000000000000000000019
:103FA80000000000000000000403090412010002E0
:103FB8000000004083042B570002010203010000A7
:103FC800491000085510000819110008F5100008DC
:103FD800E11000083511000859110008050109060B
:103FE800A101050719E029E71500250175019508C4
:103FF8008102950175088103950575010508190168
:104008002905910295017503910395067508150018
:1040180025650507190029658100C0000A06000208
:104028000000004001000000092111010001223FA9
:104038000000000009022200010100E0320904002A
:10404800000103010100092111010001223F0007BD
:1040580005810304000A000009022200010100E0B2
:1040680032090400000103010100092111010001C6
:10407800223F00070581030400070000090222000F
:10408800010100E0320904000001030101000921D7
:1040980011010001223F000705810304000A000006
:1040A800DB3D0008B93D0008A53C00080000000001
:1040B800000000008D3C0008000000000000000027
:1040C8000000000000000000753C0008693C000882
:0840D800813C0008993C00083E
:0400000508003E2D84
:00000001FF
